:020000022000DC
:1070000000000420757302005D730200E9A702000E
:1070100061730200637302006573020000000000E8
:1070200000000000000000000000000041C9020054
:10703000697302000000000065C902006D73020060
:10704000F9FA02006F730200E5070300252E030022
:107050006F7302006F730200DD0603006F7302009E
:107060006F7302006F7302006F7302006F73020090
:107070006F7302006F7302006F7302006F73020080
:107080006F730200CDCD02006F7302006F730200B8
:107090006F7302006F7302003D9703006F7302006D
:1070A0006F7302006F7302006F7302006F73020050
:1070B0006F7302006F730200000000000000000008
:1070C0006F7302006F7302006F7302006F73020030
:1070D0006F7302006F7302006F7302006F73020020
:1070E0006F7302006F7302006F73020000000000F4
:1070F000000000006F730200000000006F730200C8
:10710000000000000000000000000000000000007F
:10711000000000000000000000000000000000006F
:10712000000000000000000000000000000000005F
:10713000000000000000000000000000000000004F
:10714000000000000000000000000000000000003F
:10715000000000000000000000000000000000002F
:10716000000000000000000000000000000000001F
:10717000000000000000000000000000000000000F
:1071800000000000000000000000000000000000FF
:1071900000000000000000000000000000000000EF
:1071A00000000000000000000000000000000000DF
:1071B00000000000000000000000000000000000CF
:1071C00000000000000000000000000000000000BF
:1071D00000000000000000000000000000000000AF
:1071E000000000000000000000000000000000009F
:1071F000000000000000000000000000000000008F
:10720000354936480A1A02D0072291438D4634493F
:1072100034480A1A06D00722914381F309880222D2
:1072200082F3148830483149314A00F044F831483B
:107230003149324A00F03FF831483249324A00F0D1
:107240003AF832483249334A00F035F83248334987
:10725000334A00F030F833483349344A00F02BF811
:1072600033483449344A00F026F83448344900227F
:1072700000F02CF833483449002200F027F8334856
:107280003349091A082902DB002202604160314AB1
:1072900090471F481F49884205D00268043003B454
:1072A000904703BCF7E700208646EC46002000210B
:1072B000294A9047FEE7884207D0521A05D0037842
:1072C00001300B700131013AF9D17047884202D088
:1072D00002700130FAE770470000042000F8032034
:1072E0000000042000000420A0CB03008C590020E3
:1072F000905A0020D0730200D07302008C9A0300D1
:10730000A0CB03008C5900208C590020FC9B03006B
:10731000FC9B0300FC9B0300FC9B0300FC9B030005
:10732000FC9B0300FC9B0300FC9B03009ECB030023
:10733000A4CC0300905A0020905A0020905A0020BC
:10734000D8790020D8790020D8790020D879002079
:10735000D87D00209D730200B53A0300FEE7FEE7EA
:10736000FEE7FEE7FEE7FEE7FEE7FEE7FEE7FEE7F5
:1073700000F002B8FFF7FCBF0F484FF00701884349
:1073800085460E4880470E48016841F4700101604F
:10739000BFF34F8FBFF36F8FFFF732BF09480A4922
:1073A0000A4A884207D0521A05D0037801300B7080
:1073B0000131013AF9D1704700000420FDC40200F8
:1073C00088ED00E0E89B0300785900208C590020EC
:1073D00000B585B00190019B002B0AD0074B43F00C
:1073E00001030393019B9B010293039B029898471F
:1073F00000E000BF05B05DF804FB00BF109C030077
:1074000000B583B00190019B002B0AD04FF47A7035
:10741000FFF7DEFF019B013B0193019B002BF5D1A0
:1074200000E000BF03B05DF804FB08B50CF0CEFE31
:1074300000BF08BD00B589B0039002910192019B85
:10744000002B33D00023079303230693029A079B54
:107450001344019A194600200CF068FE0590079A23
:10746000059B13440793019A059BD31A0193059B2F
:10747000002B13D10F4B1B7883F00103DBB2002BE1
:1074800013D10120FFF7BCFF069B013B0693069B2F
:10749000002B03D1074B00221A7007E0054B012295
:1074A0001A70019B002BD1D100E000BF00BF09B0D2
:1074B0005DF804FB905A002000B585B0039002915E
:1074C000054B00934023054A0299039800F012F8F7
:1074D00000BF05B05DF804FB35740200945A00202B
:1074E00082B0019000BF02B0704782B0019000BF2F
:1074F00002B0704700B5A1B00590049103920293C9
:10750000049804F049FD039B1593029B16930023F6
:10751000179300238DF8603000231993229B1A9350
:1075200000231F930FA91F9B0822049804F0F2FD6B
:1075300008231F93119B1293BDF84030ADF84C30D7
:10754000BDF84230ADF84E3001238DF851309DF832
:107550003C3003F00303DBB2012B26D10F9BC3F3B6
:1075600095231C939DF83C30C3F3C203DBB28DF826
:107570005030BDF83C30C3F38313DBB21B931B9B2D
:107580009A0009A91F9B049804F0C4FD1B9B9B0053
:107590001F9A13441F9312AA09A915AB009313460F
:1075A0001B9A1C9800F0D8FF2FE09DF83C3003F0A8
:1075B0000303DBB2022B28D1BDF83E30C3F389139D
:1075C0009BB21E939DF83C30C3F3C203DBB28DF82F
:1075D00050301E9B082B28BF08231D9307A91F9B13
:1075E0001D9A049804F096FD1F9A1D9B13441F9347
:1075F0001E9A1D9BD31A1E9315AB12AA07A81D999C
:1076000001F04CF81E9B002BE3D1049804F0D3FC4E
:1076100000BF21B05DF804FB00B583B00190019B71
:107620001B781A460C4B9B5C002B05D0019B043346
:1076300018460AF0E7FA0BE0019B1B781A46064B46
:107640009B5C002B04D1019B0C33184609F0C8FC4D
:1076500000BF03B05DF804FB1873002000B587B0CD
:107660000390029113468DF8073000230593039B86
:107670001B781A46114B9B5C002B09D0039B0433EB
:107680009DF80720029918460AF01EFB05900FE0AE
:10769000039B1B781A46094B9B5C002B08D1039B6C
:1076A0000C339DF807200299184609F011FD05904A
:1076B000059B184607B05DF804FB00BF1873002057
:1076C00082B001900091034B01221A7000BF02B0FA
:1076D000704700BF145B002030B58DB003468DF8B5
:1076E0000730194B02AC1D460FCD0FC495E80F00B3
:1076F00084E80F00062302934FF0FF3303934FF00B
:10770000FF3304934FF0FF3305934FF0EB7308936F
:107710009DF80730002B01D00C4A00E0002202AB9C
:1077200019460B4808F026F80B900B9B0A930A9B0E
:10773000002B02D00A9801F0F9FA064A9DF80730AA
:10774000137000BF0DB030BD189C0300C17602005D
:107750008C590020155B002000B583B001238DF803
:1077600007309DF807301846FFF7B6FF00BF03B09B
:107770005DF804FB00B589B0039002910192019B72
:107780008DF81F30114B00221A709DF81F301A46D9
:1077900002990F48FFF762FF0690069B0593059B31
:1077A000002B02D0059801F0C1FA00BF094B1B78ED
:1077B000002B07D0054B1B78DBB283F00103DBB253
:1077C000002BF3D100BF09B05DF804FB145B00206F
:1077D0008C590020155B002000B585B00390029104
:1077E000054B00934023054A02990398FFF782FE58
:1077F00000BF05B05DF804FB75770200D45A002085
:1078000082B0019000BF02B07047000000B583B0A5
:1078100001900548FFF700FF0020FFF75DFF00BF64
:1078200003B05DF804FB00BF8C59002082B00190CA
:10783000019BDB6801225A7100BF02B07047000053
:1078400000B583B04FF0FF330193FFF7EEFD042145
:107850000A4800F09DFD01900848FFF7E7FFFFF799
:107860007BFF0421064800F093FD01900448FFF7D8
:10787000DDFF00BF03B05DF804FB00BFC89B030041
:10788000D89B030000B583B001900091019B1B6859
:107890001B6800990198984700BF03B05DF804FB8E
:1078A00000B583B00190019B1B685B680198984705
:1078B00000BF03B05DF804FB00B583B00190019BED
:1078C0001B689B680198984700BF03B05DF804FBF4
:1078D00082B001900B468DF80330019BDB689DF868
:1078E00003201A7100BF02B0704782B00190019B63
:1078F000DB681B79184602B0704782B00190019B8B
:10790000DB6801225A7100BF02B0704782B001905B
:10791000019BDB685B79184602B0704700B585B003
:10792000019000910C4B00221A700C4804F098FA58
:107930000390039B002B01D0039B08E0084804F050
:10794000FDFB084A084BD31ADB08029300231846B4
:1079500005B05DF804FB00BF805C0020E49A0300E2
:10796000689C0300C89B0300F89A0300024A034B7B
:10797000D31ADB0818467047C89B0300F89A030027
:1079800000B587B001900B468DF803309DF80330A9
:10799000002B1FD0FFF7EAFF04900023059313E0AC
:1079A000059B9B000E4A13440393039B1B881A46B6
:1079B000019B1B689A4204D1019B059A1A6000231F
:1079C00009E0059B01330593059A049B9A42E7D38E
:1079D000052300E00023184607B05DF804FB00BF54
:1079E0008C59002000B585B001900B468DF803300E
:1079F0009DF8032001AB11461846FFF7C1FF03466F
:107A0000002B07D1019BDB00054A13440393039B22
:107A10001B6800E00023184605B05DF804FB00BFBA
:107A2000F89A030084B001900B468DF80330019B57
:107A3000DB00174A134402939DF80330013B032BEC
:107A40001CD801A252F823F0597A0200617A020090
:107A5000697A0200737A020002238DF80F3011E078
:107A600004238DF80F300DE0029B1B798DF80F3049
:107A700008E0029B5B798DF80F3003E000238DF85E
:107A80000F3000BF9DF80F30184604B0704700BF9C
:107A9000F89A030084B00190009100238DF80F3014
:107AA000019B1B7803F00403DBB2002B24D0019B65
:107AB0001B78C3F30103DBB2012B02D0022B0CD0E5
:107AC00017E0009B1B68019A1288C2F38312D2B29E
:107AD00013449A1C009B1A600BE0009B1B68019AE0
:107AE0005288C2F3891292B213449A1C009B1A6006
:107AF00000BF01238DF80F309DF80F30184604B0F9
:107B00007047000000B58BB00023ADF826303B482D
:107B100003F0C8F93A4803F0C5F93A4B9B6804935F
:107B2000394B1B680693049A069B134002339B0053
:107B3000344A13440433089304AB19460898FFF7FA
:107B4000A9FF0346002B09D0049A069B1340023379
:107B50009B002C4A134404330893EDE700BF002335
:107B6000079311E0049B5A1C0492069A1340079A4B
:107B7000920001A90A44234902339B000B445B682D
:107B80001360079B01330793079B012BEAD99DF8EC
:107B90000430C3F30103DBB2012B10D0022B1CD144
:107BA000BDF80A30ADF82630BDF80630C3F38913AE
:107BB0009BB203339A08049B134404930EE0BDF870
:107BC0000A30ADF82630BDF80430C3F38313DBB2BE
:107BD0001A46049B1344049300E000BF084803F0D6
:107BE0006DF90590059B002B02D0049B054A93601C
:107BF000BDF8263018460BB05DF804FB98600020F5
:107C000094600020805C0020B059002000B585B051
:107C10000021074803F087F80390039B0293029B1F
:107C200083F310030193019B184605B05DF804FB34
:107C30009C60002000B589B00390029101920093EE
:107C4000039B1B0C0693FFF7E1FF0790079B1904AA
:107C5000009B5A1C0A9B1340069A0A431B49023395
:107C60009B000B445A60009A0A9B134002339B000E
:107C7000164A134404330593039B03F00703D9B258
:107C8000059A137861F3C5031370019B03F00F038A
:107C9000D9B2059A138861F389131380029BC3F349
:107CA0001501059A136861F39F231360059A1378F1
:107CB000012161F301031370059A13786FF38203B6
:107CC000137000BF09B05DF804FB00BF805C0020AA
:107CD00000B58DB00390029113468DF80730039BD9
:107CE00002330A9301238DF8273000238DF81B30CF
:107CF0000DF11B03184601F01BFA404B5A68029B1A
:107D00001A603F4B1A683D4B99683C4B5B68CB1A35
:107D1000134401330B9314E001213A4803F092F825
:107D2000FFF7F0FE07900799364803F08BF8344BC5
:107D30001A68324B9968314B5B68CB1A1344013394
:107D40000B930A9A0B9B9A42E6D89DF82730002B9A
:107D500048D0002305939DF80730002B17D09DF8DD
:107D60001430012262F301038DF814309DF81430B1
:107D700043F004038DF81430039B03F00F03DAB2D1
:107D8000BDF8143062F38913ADF8143016E09DF895
:107D90001430022262F301038DF814309DF8143080
:107DA00043F004038DF81430039BC3F309039AB224
:107DB000BDF8163062F38F13ADF816300F4B5A68CA
:107DC0000F4B1B68134002339B000C4A13440433CF
:107DD0000893059A089B1A60084B5A680A9B13443B
:107DE000064A53609DF81B30184601F0ABF99DF828
:107DF000273018460DB05DF804FB00BF805C002002
:107E0000B05900209C60002000B58BB00590049113
:107E1000039202931F4B1B68079306AB012219467E
:107E20000298FFF755FF0346002B24D0069B023330
:107E300009930023089311E0089B9B00039A1A44BE
:107E4000099B591C099107990B401268124902338A
:107E50009B000B445A60089B01330893089A029BCD
:107E60009A42E9D3069A079B00931346029A049913
:107E70000598FFF7DFFE084B1B78002B05D000BFED
:107E800000F07CF80346002BFAD100BF0BB05DF880
:107E900004FB00BFB0590020805C002000B583B017
:107EA000019000910023002200990198FFF7ACFF98
:107EB00000BF03B05DF804FB00B587B003900291EA
:107EC0000192019B059305AA012302990398FFF7EC
:107ED0009BFF00BF07B05DF804FB00B587B00390BF
:107EE000029101920093019B0493009B059304AAC5
:107EF000022302990398FFF787FF00BF07B05DF8E0
:107F000004FB00B589B00390029101920093019B9C
:107F10000593009B06930A9B079305AA03230299E6
:107F20000398FFF771FF00BF09B05DF804FB00B5CF
:107F300089B00390029101920093019B0493009BEE
:107F400005930A9B06930B9B079304AA04230299AB
:107F50000398FFF759FF00BF09B05DF804FB00006C
:107F6000054B9A68044B5B689A420CBF01230023BF
:107F7000DBB21846704700BF805C002000B599B0A6
:107F8000FFF7EEFF0346002B01D00023C0E19B4B1F
:107F90000022C3F81824BFF34F8F00BF974B9B6894
:107FA0000493974B1B681093049A109B1340023361
:107FB0009B00924A13440433119300231793002328
:107FC000169300230F9304AB19461198FFF762FD37
:107FD0000346002B19D0894BD3F81834002B14D149
:107FE000864B5A68049B9A4205D8844B5B68834A47
:107FF000936000238CE1049A109B134002339B0092
:108000007E4A134404331193DDE70023159311E0F6
:10801000049B5A1C0492109A1340159A920001A9CD
:108020000A44764902339B000B445B681360159B3E
:1080300001331593159B012BEAD99DF8043003F009
:108040000303DBB2022B40F09C80BDF80630C3F383
:1080500089139BB20D93BDF80630C3F389139BB20D
:10806000502B28BF50239BB20C930C9BC3F30903E6
:108070009AB2BDF8063062F38F13ADF806300C9B50
:1080800008330B939DF80430C3F3C203DBB20F93A4
:108090000B995C4803F0EFFE1790179B002B00F044
:1080A000D380179803F078FF01A9169B0822179830
:1080B00004F01CF8169B08331693049BDA43109BBC
:1080C000134001339B000A930C9A0A9B9A4242D9AF
:1080D0000A9B002B08D0049A109B134002339B008C
:1080E000464A1344043300E0474B08930A9B002B95
:1080F00002D00A9BDBB201E00C9BDBB28DF81F3093
:108100000A9B002B01D0404B00E0002306930A9B02
:10811000002B06D00C9BDAB20A9BDBB2D31ADBB27F
:1081200000E000238DF817309DF81F20169B08995A
:10813000179803F0DBFF9DF81F30169A134416932F
:10814000069B002B16D09DF81720169B06991798B2
:1081500003F0CCFF0EE0049A109B134002339B0007
:10816000264A134404330993169B0C9A09991798CD
:1081700003F0BCFF0D9B03339A08049B1344049344
:1081800062E09DF8043003F00303DBB2012B5BD106
:10819000BDF80430C3F38313DBB2062B28BF0623DC
:1081A000DAB2BDF8043062F38913ADF80430BDF8DB
:1081B0000430C3F38313DBB202330E939DF8043013
:1081C000C3F3C203DBB20F930E9B9B0019460D480D
:1081D00003F051FE1790179B002B35D0179803F032
:1081E000DBFE01A9169B0822179803F07FFF169B60
:1081F00008331693002315931DE000BF805C002018
:10820000B0590020E49A03008C5C0020049B5A1CA7
:108210000492109A134002339B003F4A1344191DE5
:10822000169B0422179803F061FF169B04331693E4
:10823000159B01331593BDF80430C3F38313DBB2F0
:108240001A46159B9342E1D3179B002B40D0324B2B
:10825000D3F810341493304BD3F81834002B1BD0C0
:10826000179803F0A8FE4DE000238DF84F301498C6
:10827000FFF74CFB0346002B02D001238DF84F3053
:108280009DF84F30002B03D017991498FFF7FAFA96
:10829000149BDB681B681493149B002BE4D1179884
:1082A00003F089FE00238DF803300DF10303184617
:1082B00000F03EFF184BD3F81834002B02D1049B7A
:1082C000154A93609DF80330184600F03BFF19E013
:1082D000114BD3F81034129306E01298FFF7ECFA22
:1082E000129BDB681B681293129B002BF5D10B4A83
:1082F0000B4BD31ADB081B0443F002030949184651
:10830000FFF7CCFDFFF72CFE034683F00103DBB241
:10831000184619B05DF804FB805C0020289B030020
:10832000F89A0300789C030000B585B000230393FE
:1083300023E0164BD3F81034029301238DF8073055
:108340000FE00298FFF7D1FA03461A46039B9342C7
:1083500003D100238DF8073006E0029BDB681B6821
:108360000293029B002BECD19DF80730002B01D02B
:10837000039B07E0039B01330393039B092BD8DD89
:108380004FF0FF33184605B05DF804FB805C002019
:1083900000B585B001900B468DF80330FFF7C4FFA0
:1083A0000390039BB3F1FF3F01D1039B22E0039BAA
:1083B000DBB219460198FFF78BFA104BD3F8103453
:1083C000002B08D10D4A019BC2F81034019BDB68D9
:1083D00000221A600DE0094BD3F81034DA68019BD3
:1083E000DB6812681A60054BD3F81034DB68019A19
:1083F0001A60039B184605B05DF804FB805C002002
:1084000000B583B00C4BD3F8103401930A4B012212
:108410001A7009E00198FFF770FA0198FFF740FA27
:10842000019BDB681B680193019B002BF2D100BF0D
:1084300000BF03B05DF804FB805C002082B00190B7
:10844000009100BF02B0704710B584B00390029154
:10845000039BDB88002B0AD0039BDB881A461F4B4B
:10846000009313461E4A1F49029802F0F5FD039B34
:108470001B7A052B2ED0039B5B7A002B12D0039B1B
:108480009B881A46039B1B7A19461046FFF7CAFAC7
:1084900003461A46144B53F822301A4613490298E1
:1084A00002F0DAFD039B1B6819460298FFF7C6FF2E
:1084B000039B1B7A1A460E4B53F82240039B9B8862
:1084C00000211846FFF78EFA034622460949029812
:1084D00002F0C2FD00BF04B010BD00BFAC9C0300A1
:1084E000BC9C0300F49C0300C85900200C9D0300B1
:1084F000B4590020109D030000B585B0039002918F
:1085000013468DF80730039B1B7A052B0FD0039B76
:108510005B7A002B06D00D4B1B681A460C4902985B
:1085200002F09AFD0B49029802F096FD07E09DF8D3
:108530000730002B03D00749029802F08DFD029806
:1085400002F072FD00BF05B05DF804FBC8590020C1
:108550000C9D03001C9D030030B58BB00790069165
:10856000059204930E9B1B7B8DF827300E9B0022F7
:108570001A730E990498FFF767FF059B062B7FD8A7
:1085800001A252F823F000BFA5850200AF850200CA
:10859000BF850200D3850200F18502001986020022
:1085A0004986020007990E9802F056FD69E0069B85
:1085B0001B681A4607990E9802F04EFD61E0069B73
:1085C0001A68069B04331B6807990E9802F044FD55
:1085D00057E0069B1A68069B04331968069B08330C
:1085E0001B6800930B4607990E9802F035FD48E092
:1085F000069B1968069B04331868069B08331B68A2
:10860000069A0C3212680192009303460A460799B3
:108610000E9802F021FD34E0069B1868069B043397
:108620001C68069B08331B68069A0C321268069970
:10863000103109680291019200932346024607997E
:108640000E9802F009FD1CE0069B1C68069B043393
:108650001D68069B08331B68069A0C32126806993F
:108660001031096806981430006803900291019255
:1086700000932B46224607990E9802F0EDFC00E08D
:1086800000BF00220E990498FFF736FF0E9B9DF85D
:1086900027201A7300BF0BB030BD00BF00B587B0F4
:1086A0000390029101920093029B082B60D8009BDB
:1086B0001B7B8DF81330009B00221A7300990198E0
:1086C000FFF7C2FE0023059314E0059A029B9A422D
:1086D00009D2039A059B13441B781A462649009831
:1086E00002F0BAFC03E02549009802F0B5FC059BB6
:1086F00001330593059B072BE7D92149009802F028
:10870000ABFC0023059326E0059A029B9A421BD2FC
:10871000039A059B13441B788DF812309DF8123094
:108720007E2B0AD89DF81230184611F0C5F8034682
:10873000002B02D09DF8123000E02E231A4611497A
:10874000009802F089FC03E00F49009802F084FCD5
:10875000059B01330593059B072BD5D90122009971
:108760000198FFF7C9FE009B9DF813201A7300E0E3
:1087700000BF07B05DF804FB209D0300289D0300A7
:108780002C9D0300309D0300349D030084B00346FC
:108790008DF807309DF807305B08DBB21A460D4BA9
:1087A0009B5C8DF80F309DF8073003F00103002B20
:1087B00004D09DF80F301B09DBB204E09DF80F30A8
:1087C00003F00F03DBB28DF80E309DF80E30184623
:1087D00004B07047D860002084B003460A468DF884
:1087E000073013468DF806309DF8073003F001037B
:1087F000002B01D00F2300E0F0238DF80F309DF8FF
:10880000073003F00103002B04D09DF806301B0154
:10881000DBB201E09DF806308DF80E309DF8073090
:108820005B08DBB21A46114B9A5C9DF807305B0877
:10883000DBB219469DF80F301340DAB20B4B5A5495
:108840009DF807305B08DBB21A46084B9A5C9DF82E
:1088500007305B08DBB219469DF80E301343DAB2DD
:10886000024B5A5400BF04B0704700BFD8600020CC
:1088700084B003468DF807300023039310E00D4BBE
:108880001A68039BDB0013440293029B1B789DF83C
:1088900007209A4201D1029B09E0039B0133039315
:1088A000054B1B781A46039B9342E8DB00231846CE
:1088B00004B07047A0600020A460002000B585B01F
:1088C00003460A468DF8073013468DF806309DF8AA
:1088D00007301846FFF7CCFF0390039B002B0BD00B
:1088E000039B5B68002B07D0039B5B689DF8061019
:1088F0009DF807201046984700BF05B05DF804FBBF
:108900002DE9F04F87B003460A468DF80F30134625
:108910008DF80E309DF80F301846FFF737FF0346ED
:10892000042B00F2C28001A252F823F04189020018
:10893000B5890200D1890200018A0200178A02006B
:108940009DF80E30002B00F0AD809DF80F30012116
:108950001846FFF741FF00238DF817300DF117037C
:10896000184600F0E5FB9DF80F104FF001024FF0A4
:108970000003A1F12004C1F1200003FA01F702FA7B
:1089800004F4274322FA00F0074302FA01F6494BA8
:10899000D3E9002346EA020100913B430193454B92
:1089A000DDE90012C3E900129DF81730184600F007
:1089B000C9FB77E09DF80E30002B01D0022200E0C9
:1089C00000229DF80F3011461846FFF705FF6CE0B6
:1089D0009DF80E30002B0CD09DF80F300321184667
:1089E000FFF7FAFE9DF80F3001211846FFF766FFEA
:1089F0005BE09DF80F3001211846FFF7EDFE54E0D3
:108A00009DF80E30002B4FD19DF80F3004211846F1
:108A1000FFF7E2FE48E09DF80E30002B06D09DF8EF
:108A20000F3003211846FFF7D7FE3EE09DF80F30C8
:108A300000211846FFF7D0FE9DF80F3000211846A0
:108A4000FFF73CFF00238DF816300DF11603184692
:108A500000F06EFB9DF80F104FF001024FF0000385
:108A6000A1F12006C1F1200003FA01F502FA06F691
:108A7000354322FA00F0054302FA01F46FEA0408D4
:108A80006FEA05090B4BD3E9002308EA020A09EA59
:108A9000030B084BC3E900AB9DF81630184600F0F5
:108AA00051FB02E000BF00E000BF00BF07B0BDE81F
:108AB000F08F00BFD060002000B583B00648074BA0
:108AC0001B685B080022194600F006FA019000BFFF
:108AD00003B05DF804FB00BFAC600020A86000207C
:108AE00000B587B001900023059328E01C4B1A685D
:108AF000059BDB0013440493049B1B78184607F086
:108B00004BFD03468DF80F30049B5B78012B0CBFA7
:108B100001230023DBB21A469DF80F309A420CBFA6
:108B2000012300238DF80E30049B1B789DF80E2046
:108B300011461846FFF7E4FE059B01330593094BE8
:108B40001B781A46059B9342D0DB074BD3E90023E1
:108B5000134301D0FFF7B0FF00BF07B05DF804FB7F
:108B6000A0600020A4600020D060002000B585B087
:108B700001900B468DF80330019BDBB21846FFF7DE
:108B800077FE0390039B1B78184607F005FD03460C
:108B90008DF80B30039B5B78012B0CBF0123002366
:108BA000DBB21A469DF80B309A420CBF012300231A
:108BB0008DF80A309DF80A30002B06D0054BD3E91A
:108BC0000023134301D1FFF777FF00BF05B05DF825
:108BD00004FB00BFD060002000B58BB003900B46B3
:108BE00001928DF80B30019B092B01D8072367E018
:108BF00007F0EAFB034683F00103DBB2002B09D048
:108C000007F07EFB0990099B0893089B002B01D07D
:108C1000089B55E02C4A039B13602C4A9DF80B30AF
:108C200013702B4A019B136020220021294810F069
:108C3000A8FE29494FF000024FF00003C1E90023CC
:108C400031E09DF80B30DB00039A134407930323B4
:108C50008DF8143000238DF815309DF816306FF321
:108C600000038DF816309DF816306FF341038DF830
:108C700016309DF816306FF382038DF81630079B7F
:108C80009B788DF81530079B1B78184605AB134A67
:108C9000194607F0A5FB0990099B0693069B002B3C
:108CA00001D0069B0CE09DF80B305A1E8DF80B206E
:108CB000002BC6D10A4A00210A4800F0B7F8034643
:108CC00018460BB05DF804FBA0600020A4600020F3
:108CD000A8600020D8600020D06000206D8B0200CA
:108CE000E18A0200449D030000B583B00023019394
:108CF0000CE00C4B1A68019BDB0013441B7801212C
:108D0000184607F0DDFB019B01330193064B1B78EE
:108D10001A46019B9342ECD30023184603B05DF83A
:108D200004FB00BFA0600020A460002000B587B055
:108D300001900023039300230493019B059303AB4D
:108D40001A46002144F2010000F018F800BF07B0F5
:108D50005DF804FBBFF34F8F00BF064BDB6803F4E5
:108D6000E0620449044B1343CB60BFF34F8F00BF55
:108D700000BFFDE700ED00E00400FA0500B585B096
:108D800003900291019272B600BFFFF739FB00BF5A
:108D9000FFF7F4F80346002BFAD10F4A0F4BD31A12
:108DA000DB081B0443F001030D491846FFF776F872
:108DB0000C4B1B6803F00103002B00D000BE064AD9
:108DC000064BD31ADB081B0443F00203064918467E
:108DD000FFF764F8FFF7BEFF289B0300F89A030033
:108DE000489D0300F0ED00E0549D030000B585B000
:108DF0000190019806F0D0F80390039B1B7B002B99
:108E00000CD0039B5B7B83F00103DAB2039B1A73E4
:108E1000039B9B68039A12681046984700BF05B0F1
:108E20005DF804FB002318467047000000B58BB0C6
:108E300005900B4603928DF81330059B1B68089331
:108E400000230993039B002B02D0059B002B01D12B
:108E5000072338E0089B1B7B002B01D0082332E05E
:108E6000089B5B68002B2BD110220021089810F082
:108E700088FD9DF81330002B14BF01230023DBB2C3
:108E800007939DF81330002B0CBF01230023DAB2A7
:108E9000089B5A73089B039A9A600D4B0093089B9A
:108EA000079A4FF47A710B4805F0E0FD0246089BE3
:108EB0005A60089B5B68002B04D10E23099301E0E4
:108EC000082300E0099B18460BB05DF804FB00BFC7
:108ED000ED8D0200649D030000B58BB005900491F8
:108EE0000392059B0993099B5B680893089B002BE1
:108EF00001D108235AE0099B1B7B002B01D00023E2
:108F000054E0099B039A1A60EFF305830793079BCC
:108F1000002B2BD00023069306AB00220092049A6C
:108F20000921089805F0E2FD0346012B01D0042336
:108F30003CE005F043F8024606AB00210091062113
:108F4000089805F0D3FD0346012B01D004232DE042
:108F5000069B002B26D0174B4FF080525A6040BF23
:108F6000BFF34F8F00BFBFF36F8F1BE0022300934F
:108F70000023049A0421089805F0B8FD0346012B4C
:108F800001D0042312E005F00FF8024602230093FB
:108F900000230121089805F0A9FD0346012B01D00B
:108FA000042303E0099B01221A73002318460BB027
:108FB0005DF804FB00ED00E000B589B00390039B71
:108FC0000793079B5B680693069B002B01D1082340
:108FD00033E0EFF305830593059B002B1CD00023A2
:108FE000049304AB0022009200220821069805F0A9
:108FF0007DFD0346012B01D004231EE0049B002BC2
:1090000017D0104B4FF080525A6040BFBFF34F8FC4
:1090100000BFBFF36F8F0CE00223009300230022F8
:109020000321069805F062FD0346012B01D00423BD
:1090300003E0079B00221A730023184609B05DF86D
:1090400004FB00BF00ED00E082B0EFF3108300935B
:10905000009B019372B600BF019B184602B0704797
:1090600062B600BF00BF704700B585B00190FFF742
:10907000EBFF0390164B9B68002B1BD1144B012276
:109080009A60144BD3F88020134B1340104A13609E
:10909000104B114AC3F880200E4BD3F884300C4A91
:1090A00053600C4B4FF0FF32C3F88420019B002229
:1090B0001A7002E0019B01221A70039B002B01D160
:1090C000FFF7CEFF0023184605B05DF804FB00BF94
:1090D000F860002000E100E0FC06FFBD00B585B0AF
:1090E00003468DF80730104B9B68002B16D09DF877
:1090F0000730002B12D1FFF7A7FF03900B4A0A4B52
:109100001B681360094A084B5B685360064B0022DA
:109110009A60039B002B01D1FFF7A2FF00231846A2
:1091200005B05DF804FB00BFF860002000E100E03E
:1091300000B583B001900198FFF796FF00BF03B020
:109140005DF804FB00B583B003468DF807309DF849
:1091500007301846FFF7C2FF00BF03B05DF804FBFD
:1091600082B00190019B03F00303002B0CBF01238D
:109170000023DBB2184602B07047000000B585B08E
:109180000190002303930EE00B4A039B52F8233017
:10919000002B05D0084A039B52F8233001989847CA
:1091A000039B01330393039B032BEDD900BF00BF47
:1091B00005B05DF804FB00BF1061002082B0019093
:1091C0000091019B1B78013B052B61D801A252F84D
:1091D00023F000BFED910200F59102001B92020006
:1091E0004D9202006D92020089920200009B0022C3
:1091F0001A704EE0009B01221A70019B1A89009B95
:109200009A81019B9A88009BDA81019BDA68009B16
:109210009A60009B00221A743BE0009B02221A70A5
:10922000019B1A89009B9A81019B9A88009BDA8195
:10923000019BDA68009B9A60019B9B7D062B0CBF0B
:1092400001230023DAB2009B1A7422E0009B032260
:109250001A70019BDA88009B9A81019B1A89009BF6
:10926000DA81019BDA68009B9A6012E0009B04227D
:109270001A70019BDA88009B9A81009B0022DA8198
:10928000009B00229A6004E0009B05221A7000E017
:1092900000BF00BF02B0704784B001900091019BF5
:1092A0000393039A009B9A4206D2039B1B68B3F177
:1092B000FF3F01D0012300E0002303F00103DBB2F4
:1092C000184604B0704782B00190019B5B8803335D
:1092D0009B00019A1344184602B0704700B583B052
:1092E000019000910198FFF7EEFF0246009B934228
:1092F00001D2022311E0019B9B884FF6FF7293423B
:1093000008D0019B1B88002B04D0019B9B68B3F104
:10931000FF3F01D1012300E00023184603B05DF8B0
:1093200004FB000000B583B00190019B002B13D01B
:109330000D4BDB681A46019B93420DD30A4B1B6908
:109340001A46019B934207D80198FFF709FF03468D
:10935000002B01D0012300E0002303F00103DBB266
:10936000184603B05DF804FB7859002082B003462C
:109370000A46ADF806301346ADF80430BDF80620B5
:10938000134913469B0013449B000B4408331A886F
:10939000BDF804301344ADF80430BDF806200C4984
:1093A00013469B0013449B000B440A331A88BDF8F4
:1093B00004301344ADF80430BDF80430B3F5806FC9
:1093C00094BF01230023DBB2184602B0704700BFF0
:1093D0003461002084B00190009148F20963039346
:1093E0000023ADF80A3027E0BDF80A2016491346DD
:1093F0009B0013449B000B4404331B68009A9A4261
:1094000015D9BDF80A20104913469B0013449B0050
:109410000B4404331B6803F58053009A9A4206D22A
:1094200000230393019BBDF80A201A8008E0BDF8D1
:109430000A300133ADF80A30BDF80A30012BD3D918
:10944000039B184604B070473461002082B001903D
:109450000091009B9B7D022B09D9019B1A89009BDF
:10946000DB8813449BB203339AB2019B1A81019BA0
:109470005A89009BDB88D31A9BB2033B9AB2019BAB
:109480005A8100BF02B0704700B583B0074B1B681C
:109490001946002300930823054A064802F040F9C4
:1094A0000346184603B05DF804FB00BF5C61002072
:1094B000689D03007859002000B585B0039003999A
:1094C000002300930823044A044802F029F90346C4
:1094D000184605B05DF804FB709D03007859002024
:1094E00000B585B003460091ADF8063000238DF835
:1094F0000F30BDF806300333ADF80A30BDF80A303E
:1095000040F2FE32934202D948F208634BE0002356
:10951000ADF80C303BE0BDF80C20254913469B000C
:1095200013449B000B441B78002B2BD1BDF80A2061
:10953000BDF80C3011461846FFF718FF0346002B04
:1095400020D001238DF80F30009BBDF80C201A802D
:10955000BDF80C20164913469B0013449B000B4496
:109560000A331988BDF80C20BDF80A300B4498B2B4
:109570000F4913469B0013449B000B440A330246D9
:109580001A8008E0BDF80C300133ADF80C30BDF89E
:109590000C30012BBFD99DF80F30002B01D00023D8
:1095A00001E048F20663184605B05DF804FB00BF11
:1095B0003461002082B003460A46ADF806301346F7
:1095C000ADF80430BDF804200D4913469B00134448
:1095D0009B000B440A331A88BDF80630D31A9BB29D
:1095E000BDF80420033B98B2054913469B00134481
:1095F0009B000B440A3302461A8000BF02B070473A
:109600003461002008B50121024801F01BFC03462B
:10961000184608BD2061002000B585B003460091C2
:10962000ADF80630BDF80620244913469B001344CC
:109630009B000B4404331B6803F580530293009B8B
:109640001B680393039B002B04D00398FFF73BFE9A
:10965000039026E0BDF80620184913469B001344EA
:109660009B000B4404331B680833039319E00299F1
:109670000398FFF733FE0346022B10D0022B10DCB9
:10968000002B02D0012B05D00BE0009B039A1A603F
:1096900001230EE00398FFF716FE039001E000237C
:1096A00007E002990398FFF7F7FD0346002BDED190
:1096B0000023184605B05DF804FB00BF34610020AC
:1096C00000B585B001900091019B5B681846FFF7DB
:1096D00029FE0346002B19D0019B1A89244B1B89B4
:1096E0009A4213D1019B1A68019B5B689B689A425E
:1096F0000CD1019B5B6819460098FFF76BFE03468F
:10970000002B0CBF01230023DBB22CE0009B0022C6
:109710001A8023E00023029310E0029B0393039B33
:109720009A68019B1B689A4208D1029A019B5A6071
:109730000F4B1A89019B1A81012314E0009B1B889F
:1097400002AA11461846FFF767FF0346002BE4D133
:10975000009B1B8801339AB2009B1A80009B1B88D8
:10976000012BD7D90023184605B05DF804FB00BFD4
:109770006461002000B587B00390029101920093CC
:10978000324B1B78DBB283F00103DBB2002B02D03B
:1097900048F2016355E0019B002B02D0009B002B97
:1097A00049D148F204634CE0009B9B881946284A43
:1097B0000B469B000B449B0013441B78002B33D1BA
:1097C00024E0009B1B680593039B002B06D0059BA0
:1097D0009A88039B1B889A4200D017E0029B002BBB
:1097E00006D0059B1A88029B1B889A4200D00DE088
:1097F000059B9A68019B1A60009B1A68019B5A603E
:10980000144B1A89019B1A8100231AE0009B9B8844
:10981000009A11461846FFF7FFFE0346002BD0D1F1
:10982000009B00221A6000E000BF009B9B88013370
:109830009AB2009B9A80009B9B88012BB4D948F276
:109840000963184607B05DF804FB00BF04610020FF
:10985000346100206461002000B585B00190084BA0
:109860000199184601F039F903901C220021039850
:1098700010F087F8039B184605B05DF804FB00BFA5
:109880002461002000B583B00190044B0199184673
:1098900001F03CF900BF03B05DF804FB2461002037
:1098A00000B583B00190054B0199184601F042F9CB
:1098B0000346184603B05DF804FB00BF2461002096
:1098C00000B583B00190044B0199184601F04BF9A3
:1098D00000BF03B05DF804FB2461002008B501213E
:1098E000054801F0C7FA0346002B14BF01230023EB
:1098F000DBB2184608BD00BF0C61002000B587B080
:1099000003900291039B02229A750299039B1A1DF0
:10991000002300930423074801F002FF0590059BF4
:10992000002B01D1002301E048F20D63184607B077
:109930005DF804FB7859002000B587B003900291D0
:10994000039B1B69002B01D0032200E00122039B33
:109950009A75029B08331946039B03F10C020023FE
:1099600000930423074801F0DBFE0590059B002BC4
:1099700001D1002301E048F20D63184607B05DF8FD
:1099800004FB00BF7859002000B587B00390029116
:10999000039B1B78032B01D1052200E00622039BC9
:1099A0009A75029B04331946039B03F108020023B6
:1099B00000930423074801F0B3FE0590059B002B9C
:1099C00001D1002301E048F20D63184607B05DF8AD
:1099D00004FB00BF7859002000B587B003900B4608
:1099E000ADF80A3003990023009304230D4A0E4872
:1099F00001F096FE0590059B002B02D048F20D6306
:109A00000BE0BDF80A20094913469B0013449B0054
:109A10000B44103301221A700023184607B05DF87A
:109A200004FB00BF789D03007859002034610020BA
:109A300000B589B0019002AB00221A605A609A60AA
:109A4000019BDB6802930DF1160202AB114618462A
:109A5000FFF736FE0346002B12D0039B0693069BAE
:109A60009A88019BDA80069B1A88019B1A81039BC6
:109A7000BDF8162011461846FFF7AEFF079002E02A
:109A800048F209630793079B184609B05DF804FB89
:109A900000B587B00190019B981D02AA0D4B0021D3
:109AA000FFF768FE0590059B002B08D1039B094A30
:109AB000928811461846FFF78FFF059004E00822B0
:109AC000002104480FF05DFF059B184607B05DF8C4
:109AD00004FB00BF7461002000B587B003900291C1
:109AE000039B01229A75029B0C331846039B1A694B
:109AF000039BDB889B00002100910146074801F091
:109B00000FFE0590059B002B01D1002301E048F2D8
:109B10000D63184607B05DF804FB00BF78590020BC
:109B200082B0184B1B8901339AB2164B1A81154B20
:109B300000225A80134B00221A730023ADF806301E
:109B400018E0BDF80620104913469B0013449B0003
:109B50000B441A78BDF80630002A0CBF01220022FF
:109B6000D1B2084A13440A469A72BDF8063001334E
:109B7000ADF80630BDF80630012BE2D900BF00BFBA
:109B800002B07047646100203461002084B001900D
:109B900000238DF80F300023ADF80C3031E0BDF814
:109BA0000C301C4A13449B7A002B25D0BDF80C3096
:109BB000184A134400229A72BDF80C201649134625
:109BC0009B0013449B000B440C331B68002B13D1E8
:109BD000BDF80C20104913469B0013449B000B4416
:109BE00010331B78002B07D0019BBDF80C201A8086
:109BF00001238DF80F3008E0BDF80C300133ADF8CB
:109C00000C30BDF80C30012BC9D99DF80F30184627
:109C100004B07047646100203461002008B5084B2F
:109C200005221A70074B02229A80064B1B681946C0
:109C300000230122044801F055FE0346184608BDE2
:109C4000646100205C6100207859002000B583B079
:109C5000164B5B88ADF80230BDF80220144913465C
:109C60009B0013449B000B440C331B68002B14D146
:109C70000E4B04221A70BDF802200D4913469B00BA
:109C800013449B000B4404331B6819460023012234
:109C9000084801F027FE019002E0FFF7BFFF0190A6
:109CA000019B184603B05DF804FB00BF646100200F
:109CB000346100207859002000B587B0104B5B68F4
:109CC0000593104B1A680F4B9B889B001344049319
:109CD000059B5B880333ADF80E30094B03221A70E5
:109CE0000499074B5A68BDF80E309B000020009085
:109CF000054801F015FD0346184607B05DF804FB62
:109D0000646100205C6100207859002000B583B0B8
:109D10000A4B5B880A491846FFF77EFC0346002B76
:109D200003D0FFF7C9FF019002E0FFF78FFF01901A
:109D3000019B184603B05DF804FB00BF646100207E
:109D40006861002008B50A4B06221A70084B5B8830
:109D50001946084A0B469B000B449B0013440433EE
:109D60001B681846FFF7A8FB0346184608BD00BF4E
:109D7000646100203461002008B5054B07221A7089
:109D8000034B00225A60FFF77FFB0346184608BDCD
:109D90006461002008B50D48FFF7F8FE034683F024
:109DA0000103DBB2002B0BD0094B00221A70084BC9
:109DB00000225A80064B00225A6041F61D5302E0F1
:109DC000FFF7A4FF0346184608BD00BF66610020E8
:109DD0006461002082B0094B5B680193019B5B8842
:109DE0000333ADF80230064B9A88BDF802301344B5
:109DF0009AB2034B9A8000BF02B0704764610020A2
:109E00005C61002082B01E4B1B6801931D4B5B8878
:109E100019461D4A0B469B000B449B001344043318
:109E20001B68174A1360174B5B881946164A0B4686
:109E30009B000B449B0013440433019A1A60114B9E
:109E40005B8819460E4B98880F4A0B469B000B44C3
:109E50009B001344083302461A80094B02229A8061
:109E6000084B5B881946084A0B469B000B449B0035
:109E70001344103300221A7000BF02B0704700BFB5
:109E80005C610020646100203461002008B51A4B39
:109E90001B78072B2CD801A252F823F0BD9E02009C
:109EA000F19E0200F19E0200C99E0200D59E0200B2
:109EB000E19E0200E19E0200E99E0200FFF730FEF3
:109EC0000D4B01221A7014E0FFF784FF0A4B0222A7
:109ED0001A700EE0FFF796FF074B06221A7008E093
:109EE000054B07221A7004E0034B01221A7000E0B0
:109EF00000BF00BF08BD00BF6461002000B587B08F
:109F00000190009148F20E630593019B002B05D050
:109F1000634B00225A604FF40643BCE0009B1B7960
:109F2000032B00F2AB8001A252F823F03D9F020008
:109F30004B9F0200D99F0200F99F0200009B012263
:109F40001A71FFF7A1FA05909BE000238DF81330FA
:109F50000023ADF810302BE0BDF810205149134616
:109F60009B0013449B000B441B78022B1BD1BDF8B4
:109F700010204C4913469B0013449B000B440022C5
:109F80001A7001238DF81330BDF81020454913468F
:109F90009B0013449B000B4404331B681846FFF7D7
:109FA0008BFA059008E0BDF810300133ADF81030A1
:109FB000BDF81030012BCFD99DF8133083F0010389
:109FC000DBB2002B5CD0364B01221A70344B0022DE
:109FD0005A6041F61D535EE0009B00221A71324B1D
:109FE00002229A80304B1B681946002301222F4819
:109FF00001F078FC059044E0009B00221A712A4B86
:10A000001B681846FFF758FA0590294B5B88ADF896
:10A010000E30254B1B680293BDF80E2021491346D4
:10A020009B0013449B000B4404331B681E4A1360BF
:10A03000BDF80E201B4913469B0013449B000B44A4
:10A040000433029A1A60BDF80E20174B9888154900
:10A0500013469B0013449B000B44083302461A80AE
:10A06000114B02229A80BDF80E200E4913469B0028
:10A0700013449B000B4400221A7002E000BF00E072
:10A0800000BF059B002B05D0054B00225A6048F20B
:10A090000D6300E00023184607B05DF804FB00BF25
:10A0A00004610020346100205C61002078590020A8
:10A0B0006461002000B587B001900091009B9B8AED
:10A0C0001A4613469B0013449B003B4A13440493D7
:10A0D000019B002B06D000990498FFF7B7F94FF4C5
:10A0E000064364E0049B5A68049B1B899B0013444D
:10A0F0000393009B9B7D062B4DD801A252F823F0C1
:10A1000045A1020069A1020051A102005DA1020067
:10A110001DA1020075A102008FA10200274B0022A1
:10A120005A60009B9B69254A136025492348FFF725
:10A13000C7FA034683F00103DBB2002B02D048F2DA
:10A14000096334E003990098FFF7D8FB059026E0F7
:10A1500003990098FFF7F0FB059020E00399009821
:10A16000FFF7BAFC05901AE003990098FFF70CFC82
:10A17000059014E0009B06229A75104B5B68104A0C
:10A18000128811461846FFF727FC059007E041F6B4
:10A190001D53059303E048F20E63059300BF059B32
:10A1A000002B03D000990498FFF750F9059B18463F
:10A1B00007B05DF804FB00BF346100207C61002023
:10A1C0008861002000B585B001900091019B002BB3
:10A1D00002D04FF4064329E0009B1B79022B1BD0D1
:10A1E000022B1DDC002B02D0012B08D018E0009BB5
:10A1F00002221A710098FFF71BFC039015E00098EB
:10A20000FFF746FC0390039B48F2096293420BD18F
:10A2100041F61D53039307E041F61D53039304E0F9
:10A2200048F20E63039300E000BF039B184605B09D
:10A230005DF804FB00B585B00190019B002B02D0B6
:10A240004FF406433DE0214B1B7B002B03D01F4BFB
:10A2500000221A7301E0FFF719FE1C4B1B78013B2B
:10A26000062B29D801A252F823F000BF89A20200D0
:10A2700091A2020099A20200A1A20200B9A20200CA
:10A28000A9A20200B1A20200FFF784FD039017E02B
:10A29000FFF73CFD039013E0FFF70EFD03900FE086
:10A2A000FFF7D4FC03900BE0FFF74CFD039007E0B1
:10A2B000FFF762FD039003E048F20E63039300BFD3
:10A2C000039B184605B05DF804FB00BF64610020E5
:10A2D00000B589B001903B4B1B68002B05D13A4873
:10A2E000FFF7DEFA0346374A1360364B1B681B78CC
:10A2F000013B052B2BD801A252F823F015A3020035
:10A3000025A3020025A3020035A3020035A3020005
:10A3100045A302002B4B1B6819460198FFF7EEFD81
:10A32000019018E0274B1B6819460198FFF7C2FE01
:10A33000019010E0234B1B6819460198FFF742FF7C
:10A34000019008E00198FFF775FF019003E048F2E3
:10A350000E63019300BF019B002B2BD003AB0022A7
:10A360001A605A609A60DA601A61019B41F61D52C8
:10A37000934201D0019B00E000230493114B1B6822
:10A3800003AA11461846FEF719FF03AB1846FEF75D
:10A39000F5FE0C4B00221A60002301930A48FFF7D8
:10A3A0008FFAFFF79BFA034683F00103DBB2002B21
:10A3B00002D190E700BF00E000BF00BF09B05DF828
:10A3C00004FB00BF8C6100209061002008B50121D2
:10A3D000054800F01FFD0346002B02D10020FFF7C7
:10A3E00077FF00BF08BD00BF0C61002000B583B03F
:10A3F0000190019B5B681846FFF76AFF00BF03B03E
:10A400005DF804FB00B58BB00390029101928DF8CA
:10A4100003300023ADF824300023ADF82630534B31
:10A420001B78DBB283F00103DBB2002B02D048F2D1
:10A43000016397E0029B002B02D148F2046391E094
:10A44000029B1B884FF6FF72934203D0029B5B88EE
:10A45000002B02D148F2036384E0029B5B6818463C
:10A46000FEF77EFE034683F00103DBB2002B02D031
:10A4700048F2026376E0019B002B11D1029B9B689E
:10A48000ADF826300DF11A02BDF8263011461846F7
:10A49000FFF726F80890089B002B09D0089B61E085
:10A4A000019B1B88ADF81A30019B5B88ADF8263004
:10A4B00005AB1846FFF7D0F90790079B002B0AD190
:10A4C000BDF81A20BDF8263011461846FFF772F87D
:10A4D00048F2076346E0079B9DF803201A70079B2C
:10A4E00000229A75BDF81A20079B9A82029B5A682F
:10A4F000079B1A61FFF786F80246079BDA60029B0A
:10A500001A88079B1A81029B5A88079B9A80079B8F
:10A51000BDF82620DA809DF80330032B06D1079B77
:10A5200004229A75039B1A68079B9A61079BBDF8E2
:10A5300024205A8105AB1846FFF7A4F9039B002B92
:10A540000DD0039B00225A60079BDA68039B1A60B8
:10A55000039B00229A72064B1A89039B1A81FFF70C
:10A5600035FF002318460BB05DF804FB04610020A2
:10A570006461002000B585B001900091019B002B23
:10A5800002D0009B002B02D148F204632AE00DF1B7
:10A590000A0319460198FFF793F80346002B1FD0D2
:10A5A000019B5B680393BDF80A301A4613469B0073
:10A5B00013449B0008330D4A134404330121184609
:10A5C00000F040FC009B039A1A60019B5B6803F15A
:10A5D0000C02009B5A60019B01229A72002301E049
:10A5E00048F20963184605B05DF804FB34610020A9
:10A5F00000B585B00190019B002B02D148F20463A5
:10A600003BE00DF10A0319460198FFF759F803469C
:10A61000002B2ED0BDF80A3019461A4A0B469B0073
:10A620000B449B0013440C331B68002B1DD0019B73
:10A630009B7A002B19D0BDF80A301A4611491346EF
:10A640009B0013449B000B440C331B68591E0D48A0
:10A6500013469B0013449B0003440C331960019B79
:10A6600000229A720023039306E048F205630393E5
:10A6700002E048F209630393039B184605B05DF8B6
:10A6800004FB00BF3461002000B583B0019000914D
:10A690000223002200990198FFF7B4FE03461846F2
:10A6A00003B05DF804FB00B583B001900091019BFD
:10A6B000002B02D148F2046306E003230022009934
:10A6C0000198FFF79FFE0346184603B05DF804FBB0
:10A6D00000B585B00346ADF806301A4B1B78DBB2E7
:10A6E00083F00103DBB2002B02D048F2016324E0C7
:10A6F000BDF806304FF6FF72934202D148F2036371
:10A700001BE002AB1846FFF7A7F80390039B002B52
:10A7100002D148F2076310E0039B05221A70039BE5
:10A7200001221A71039BBDF80620DA8002AB18469D
:10A73000FFF7A8F8FFF74AFE0023184605B05DF8BA
:10A7400004FB00BF0461002000B585B002920193B4
:10A750000346ADF80E300B46ADF80C3003A90DF1F1
:10A760000E00019B029AFFF705F80346184605B054
:10A770005DF804FB00B585B0034602910192ADF887
:10A780000E300DF10E01019B029A0020FEF7F2FF40
:10A790000346184605B05DF804FB00B585B00346D6
:10A7A00002910192ADF80E300DF10E00019B029A5C
:10A7B0000021FEF7DFFF0346184605B05DF804FBF5
:10A7C00082B001900091019B002B02D0009B002BD6
:10A7D00002D148F2046304E0019B1A68009B1A60EE
:10A7E0000023184602B070471EF0040F1CBFEFF3A1
:10A7F00009800AE0EFF308800549064A884201D83B
:10A80000904202D88D464FF00000034B18470000DD
:10A810000000042000F8032055A8020000BF00BF7C
:10A82000BFF34F8F00BF064BDB6803F4E0620449BF
:10A83000044B1343CB60BFF34F8F00BF00BFFDE756
:10A8400000ED00E00400FA0500B583B00190FFF7C9
:10A85000E7FF000010B588B00390FDF7D1FD00BF01
:10A86000FDF78CFB0346002BFAD1039B0693544B58
:10A870009B6A0593069B002B35D0524A524BD31A44
:10A88000DB081B0443F00100069B9B691A464F49F5
:10A89000FDF712FB4B4A4C4BD31ADB081B0443F069
:10A8A0000100069B1968069B5C68069B9B68069ADC
:10A8B000D2680192009323460A464549FDF737FBCB
:10A8C000404A414BD31ADB081B0443F00100069BAE
:10A8D0001A69069B5969069BDB6900930B463D4943
:10A8E000FDF70FFB0AE0374A374BD31ADB081B048E
:10A8F00043F0010338491846FDF7D0FA304BDB6AC4
:10A9000003F00203002B0AD02E4A2F4BD31ADB0888
:10A910001B0443F0010331491846FDF7BFFA002339
:10A92000079320E00122079B02FA03F31A46059BD6
:10A930001340002B14D02A4A079B52F82330002BD7
:10A940000ED0204A204BD31ADB081B0443F0010031
:10A95000234A079B52F823301A462249FDF7ACFAE6
:10A96000079B01330793079B192BDBD9059B03F04A
:10A970008003002B0CD0134A134BD31ADB081B04A3
:10A9800043F001030E4A526B17491846FDF794FA3B
:10A99000059B03F40043002B0CD00A4A0A4BD31A40
:10A9A000DB081B0443F00103054A926B0F4918466C
:10A9B000FDF782FA0398FFF747FF00BF08B010BD0C
:10A9C00000ED00E0489B0300F89A0300889D030017
:10A9D000A09D0300D89D0300009E0300349E030049
:10A9E000EC590020789E0300849E0300A49E03007F
:10A9F00086B001900091019B53E8011F8AB2D8896B
:10AA000002449889824228BF121A1889824202BFE2
:10AA1000BFF32F8F002307E0C2EA010243E80120C1
:10AA20000028E9D14FF001038DF80F300590029115
:10AA30000492029A009B1A609DF80F30DBB2184610
:10AA400006B0704784B00190019951E8013FC3EA14
:10AA5000034341E80132002AF7D10392029300BF79
:10AA600004B0704786B001900091019B53E8021F2B
:10AA70001FFAA1F2D888824202BFBFF32F8F0023B2
:10AA80000DE0D88902449889824228BF121AC1EA8F
:10AA9000024243E802200028E8D14FF001038DF87C
:10AAA0000F30059002910492029A009B1A609DF863
:10AAB0000F30DBB2184606B0704784B001900199A0
:10AAC00051E8023FC3EA234341E80232002AF7D1AA
:10AAD0000392029300BF04B0704700B585B00190A7
:10AAE0000091009B19460198FFF782FF0346002B57
:10AAF00007D0019B1B68009A128813440393039BA1
:10AB000000E00023184605B05DF804FB00B583B0F3
:10AB100001900091009B1A88009B5B889A4204D1A7
:10AB20000198FFF78FFF012300E00023184603B0D0
:10AB30005DF804FB00B585B001900091009B1946BB
:10AB40000198FFF78FFF0346002B07D0019B1B687E
:10AB5000009A528813440393039B00E00023184695
:10AB600005B05DF804FB00B583B001900091009B37
:10AB70001A88009B5B889A4204D10198FFF79DFFD9
:10AB8000012300E00023184603B05DF804FB00B584
:10AB900085B001900091009B5B099B00019A1A44CB
:10ABA000009B03F01F03012101FA03F3194610462D
:10ABB00000F0E8F8039000BF05B05DF804FB00B5B5
:10ABC00083B001900091009B5B099B00019A1A449D
:10ABD000009B03F01F03012101FA03F319461046FD
:10ABE00000F0B8F80246009B03F01F0322FA03F3BB
:10ABF00003F00103002B14BF01230023DBB218462E
:10AC000003B05DF804FB00B585B001900091009B96
:10AC10005B099B00019A1A44009B03F01F0301216A
:10AC200001FA03F3DB431946104600F0DBF803900A
:10AC300000BF05B05DF804FB82B001900091009B5D
:10AC40005B099B00019A13441A68009B03F01F03E1
:10AC500022FA03F303F00103002B14BF01230023A6
:10AC6000DBB2184602B0704700B58DB0019000917C
:10AC700000230B934BE00B9B9B00019A13441B6832
:10AC8000DB430793079B93FAA3F30693069B089372
:10AC9000089B002B01D1202303E0089BB3FA83F328
:10ACA000DBB20A932BE00B9B5B010A9A13440993D6
:10ACB000099A009B9A4226D209990198FFF77FFFD3
:10ACC000034683F00103DBB2002B01D0099B26E091
:10ACD0000B9B9B00019A13441B68DB430493049B6A
:10ACE00093FAA3F30393039B0593059B002B01D1D8
:10ACF000202303E0059BB3FA83F3DBB20A930A9B9C
:10AD00001F2BD0D900E000BF0B9B01330B93009B9E
:10AD1000013B5B0901330B9A9A42ACD3009B184666
:10AD20000DB05DF804FB10B487B001900091019B59
:10AD3000009A53E8004F104643E8000191F0000FDD
:10AD4000F7D1059404900391059B184607B05DF870
:10AD5000044B704710B487B001900091019B009A9A
:10AD600053E8004F44EA020043E8000191F0000F6D
:10AD7000F6D1059404900391059B184607B05DF841
:10AD8000044B704710B487B001900091019B009A6A
:10AD900053E8004F44EA020043E8000191F0000F3D
:10ADA000F6D1059404900391049B184607B05DF812
:10ADB000044B704710B487B001900091019B009A3A
:10ADC00053E8004F04EA020043E8000191F0000F4D
:10ADD000F6D1059404900391059B184607B05DF8E1
:10ADE000044B704710B487B001900091019B009A0A
:10ADF00053E8004F04EA020043E8000191F0000F1D
:10AE0000F6D1059404900391049B184607B05DF8B1
:10AE1000044B704710B487B001900091019B009AD9
:10AE200053E8004F04EB020043E8000191F0000FEB
:10AE3000F6D1059404900391059B184607B05DF880
:10AE4000044B704710B487B001900091019B009AA9
:10AE500053E8004F04EB020043E8000191F0000FBB
:10AE6000F6D1059404900391049B184607B05DF851
:10AE7000044B704710B487B001900091019B009A79
:10AE800053E8004FA4EB020043E8000191F0000FEB
:10AE9000F6D1059404900391049B184607B05DF821
:10AEA000044B704700B583B0019001210198FFF772
:10AEB00069FF0346184603B05DF804FB00B583B094
:10AEC000019000210198FFF775FF0346184603B073
:10AED0005DF804FB82B001900B468DF80330019BB6
:10AEE000DA689DF803300199098A01FB03F31344E2
:10AEF000184602B0704782B001900091009B019A01
:10AF0000D2689B1A019A128AB3FBF2F3DBB218469D
:10AF100002B0704784B00190019B002B01D10E2339
:10AF200020E0019B9A68019B5B68D31A8DF80F3073
:10AF3000019B1B68019A52681A6007E0019B1A681E
:10AF40001368591C11609DF80F201A709DF80F307E
:10AF50005A1E8DF80F20002BF0D1019B1B68002298
:10AF60001A710023184604B0704700B585B00190EF
:10AF70000023039300238DF80A300DF10A031846CD
:10AF8000FEF7D6F8019B1B681A68019B5B689A4222
:10AF90001FD9019B1B681A68013A1A601B681B784D
:10AFA00019460198FFF796FF0390019B9A68019B51
:10AFB0001B681B68D31A8DF80B30019B1B681B792B
:10AFC0009DF80B209A4204D9019B1B689DF80B2029
:10AFD0001A719DF80A301846FEF7B4F8039B18461C
:10AFE00005B05DF804FB10B584B001900091009BA2
:10AFF000039300238DF80B300DF10B031846FEF779
:10B0000097F8019B1B681C68621C1A6003990198E1
:10B01000FFF771FF034623709DF80B301846FEF7CB
:10B0200091F800BF04B010BD00B583B00190019B42
:10B030009B68002B0CD0019B5B69019A1069019AF7
:10B040001168019A92689847019B00229A6000E07B
:10B0500000BF03B05DF804FB0EB400B584B00190EE
:10B06000059B002B0AD00023039306AB039303AB8D
:10B070001A460599019800F0B5F900E000BF04B048
:10B080005DF804EB03B0704700B583B001900B4648
:10B090008DF803309DF803300A2B03D10D21019860
:10B0A000FFF7F2FF019B1A68019B9B68581C0199EE
:10B0B000886013449DF803201A70019B9A68019BD5
:10B0C0005B689A4202D30198FFF7AEFF00BF03B05E
:10B0D0005DF804FB00B587B00390029101920093E4
:10B0E00000230593009B03F00103002B24D00BE009
:10B0F000029B01330293059B013305939DF81330A6
:10B1000019460398FFF7C0FF029B1B788DF8133098
:10B110009DF81330002BEBD106E0019B013B01931E
:10B1200020210398FFF7B0FF019A059B9A422ED980
:10B13000019B002BF1D12AE0029B002B0BD002983F
:10B140000EF074FC059006E0019B013B0193202169
:10B150000398FFF799FF019A059B9A420FD9019B2B
:10B16000002BF1D10BE0029B01330293059B0133CD
:10B1700005939DF8133019460398FFF785FF029B4E
:10B180001B788DF813309DF81330002BEBD100BFE6
:10B1900007B05DF804FB000000B589B00390029190
:10B1A00001920093029B07930123069307E0079AFD
:10B1B000019BB2FBF3F30793069B01330693079AB7
:10B1C000019B9A42F3D2009A069B9A4201D9009BB6
:10B1D00006930B9B03F00103002B22D10A9B002B4B
:10B1E0001FD00B9B03F00203002B06D0009B002B0B
:10B1F00003D130238DF8173002E020238DF817306B
:10B2000008E00A9B013B0A939DF817301946039802
:10B21000FFF73AFF0A9B002B03D0069A0A9B9A423B
:10B22000EFD301230793009B012B03D9009B013B24
:10B23000009309E0029A079BB2FBF3F30493049A8C
:10B24000019B9A4200D205E0079B019A02FB03F39F
:10B250000793E8E7029A079BB2FBF3F30493049B7E
:10B26000079A02FB03F3029AD31A0293154A049B2E
:10B2700013441B7819460398FFF706FF079A019BB2
:10B28000B2FBF3F30793079B002BE3D10B9B03F077
:10B290000103002B11D00A9B002B0ED006E00A9B65
:10B2A000013B0A9320210398FFF7EEFE0A9B002B37
:10B2B00003D0069A0A9B9A42F1D300BF09B05DF809
:10B2C00004FB00BF94A3030000B589B0059004916E
:10B2D00003920293049B002BB8BF5B4206930123A9
:10B2E000079307E0039B069A92FBF3F30693079BF1
:10B2F00001330793039B069A9A42F3DA029A079B5B
:10B300009A4201D9029B07930A9B002B0AD0049B07
:10B31000002B04DB0B9B03F00403002B02D00A9BE1
:10B32000013B0A930B9B03F00203002B02D0029B0C
:10B33000002B16D00B9B03F00103002B11D10A9BAD
:10B34000002B0ED006E00A9B013B0A9320210598B2
:10B35000FFF79AFE0A9B002B03D0079A0A9B9A429A
:10B36000F1D3049B002B07DA049B5B4204932D214D
:10B370000598FFF789FE08E00B9B03F00403002B00
:10B3800003D02B210598FFF77FFE0B9B03F00203F0
:10B39000002B19D00B9B03F00103002B14D1029B4F
:10B3A000002B11D10A9B002B0ED006E00A9B013B1B
:10B3B0000A9330210598FFF767FE0A9B002B03D004
:10B3C000079A0A9B9A42F1D304990B9B01930A9B1B
:10B3D0000093029B039A0598FFF7DEFE00BF09B0B9
:10B3E0005DF804FB00B58FB0059004910392049BB7
:10B3F000002B00F09181049B1B788DF83730049B63
:10B40000013304939DF83730002B00F07C819DF8C8
:10B410003730252B40F06B8100230A9301230C93D6
:10B42000049B1B788DF837309DF83730302B0DD0CA
:10B43000302B1BDC2B2B11D02D2B17D10A9B43F06B
:10B4400001030A93049B0133049312E00A9B43F027
:10B4500002030A93049B013304930AE00A9B43F01E
:10B4600004030A93049B0133049302E000230C932A
:10B4700000BF0C9B002BD3D1002309939DF83730DC
:10B480002A2B0CD1039B1B68191D039A11601B68A2
:10B49000099A13440993049B013304931AE0049B13
:10B4A0001B788DF837309DF837302F2B12D99DF847
:10B4B0003730392B0ED8049B01330493099A134675
:10B4C0009B0013445B001A469DF837301344303B11
:10B4D0000993D3E700230B93049B1B788DF8373037
:10B4E0009DF837302E2B1DD1049B01330493049B10
:10B4F0001B788DF837309DF837302F2B12D99DF8F7
:10B500003730392B0ED8049B013304930B9A134622
:10B510009B0013445B001A469DF837301344303BC0
:10B520000B93E4E7049B1B788DF837309DF8373098
:10B530006C2B03D09DF83730682B07D1049B013367
:10B540000493049B1B788DF83730EFE79DF8373074
:10B55000252B00F0C280252BC0F2C480782B00F38D
:10B56000C180582BC0F2BE80583B202B00F2BA801D
:10B5700001A252F823F000BF67B60200E5B6020050
:10B58000E5B60200E5B60200E5B60200E5B6020047
:10B59000E5B60200E5B60200E5B60200E5B6020037
:10B5A000E5B60200FDB502001FB60200E5B60200D6
:10B5B000E5B60200E5B60200E5B602001FB60200DD
:10B5C000E5B60200E5B60200E5B60200E5B6020007
:10B5D000E5B60200E5B60200A7B60200E5B6020035
:10B5E000E5B602008BB60200E5B6020043B60200E3
:10B5F000E5B60200E5B6020067B60200039B1B68D1
:10B60000191D039A11601B680C930C9B8DF81F3059
:10B610009DF81F3019460598FFF736FD63E0039B40
:10B620001B68191D039A11601B680C930A9B0193F8
:10B63000099B00930B9B0A220C990598FFF744FE87
:10B6400051E0039B1B68191D039A11601B680C9342
:10B650000C990A9B0193099B00930B9B0A22059866
:10B66000FFF79AFD3FE0039B1B68191D039A1160C9
:10B670001B680C930C990A9B0193099B00930B9BED
:10B6800010220598FFF788FD2DE0039B1B68191D0C
:10B69000039A11601B6808930A9B099A08990598F8
:10B6A000FFF718FD1FE0039B1B68191D039A11602B
:10B6B0001B680C9330210598FFF7E6FC782105986C
:10B6C000FFF7E2FC0C990023019308230093082361
:10B6D00010220598FFF760FD05E025210598FFF78A
:10B6E000D3FC00E000BF049B0133049305E09DF808
:10B6F000373019460598FFF7C7FC049B1B78002BD1
:10B700007FF479AE00E000BF059B1B7B002B04D0CB
:10B710000598FFF789FC00E000BF0FB05DF804FB5F
:10B7200010B586B00590049103920293059B002BFF
:10B7300010D1604A604BD31ADB081B0443F00100B0
:10B740005E4A5F490E2300930B465E49FCF7D9FB26
:10B750000E23ABE0039B002B10D1564A564BD31A55
:10B76000DB081B0443F00100574A55490E230093A0
:10B770000B465449FCF7C5FB0E2397E0059B1B685D
:10B78000002B10D14B4A4C4BD31ADB081B0443F05F
:10B7900001004E4A4A49082300930B464949FCF7E9
:10B7A000B0FB082382E0029B002B10D1414A424BA0
:10B7B000D31ADB081B0443F00100454A4049092322
:10B7C00000930B463F49FCF79CFB09236EE0059B69
:10B7D0005B685A68029BB3FBF2F101FB02F29B1A11
:10B7E000002B10D0334A344BD31ADB081B0443F030
:10B7F0000100384A3249092300930B463149FCF7CE
:10B8000080FB092352E0049800F01EF90346002B48
:10B8100010D1284A284BD31ADB081B0443F001003F
:10B820002D4A2749102300930B462649FCF769FB54
:10B8300010233BE0039B184600F006F90346002B5B
:10B8400010D11C4A1C4BD31ADB081B0443F0010027
:10B85000224A1B49102300930B461A49FCF751FB5F
:10B86000102323E0029A0499059800F0D3F80346C8
:10B87000002B10D10F4A104BD31ADB081B0443F0E6
:10B880000100174A0E49102300930B460D49FCF79F
:10B8900038FB10230AE0059B1B68DC68089B0093BB
:10B8A000029B039A04990598A0470346184606B0E0
:10B8B00010BD00BF589B0300F89A0300B4A3030017
:10B8C00058A50300BCA3030048A40300F0A3030091
:10B8D00004A4030050A403007CA4030094A4030068
:10B8E000B8A4030010B586B00590049103920293AA
:10B8F000059B002B10D13E4A3E4BD31ADB081B049C
:10B9000043F001003C4A3D490E2300930B463C495D
:10B91000FCF7F7FA0E2368E0059B1B68002B10D19B
:10B92000334A344BD31ADB081B0443F00100354A79
:10B930003249082300930B463149FCF7E2FA082309
:10B9400053E0039B002B10D1294A2A4BD31ADB0862
:10B950001B0443F001002C4A2849092300930B469D
:10B960002749FCF7CEFA09233FE00499059800F037
:10B9700078F80346002B10D11D4A1E4BD31ADB0862
:10B980001B0443F00100214A1C49102300930B467D
:10B990001B49FCF7B6FA102327E0059B5B681B6880
:10B9A000039A02FB03F31A460499059800F032F853
:10B9B0000346002B10D10E4A0E4BD31ADB081B0492
:10B9C00043F00100124A0D49102300930B460C4925
:10B9D000FCF797FA102308E0059B1B681C69029B83
:10B9E000039A04990598A0470346184606B010BD6F
:10B9F000589B0300F89A0300B4A303006CA503004E
:10BA0000BCA30300F0A3030004A40300E0A403000C
:10BA100008A5030084B0039002910192039BDB68A8
:10BA2000029A9A4209D3029A019B13445A1E039B1D
:10BA30001B699A4201D8012300E0002303F00103AF
:10BA4000DBB2184604B0704782B00190019B03F04E
:10BA50000303002B0CBF01230023DBB2184602B006
:10BA6000704782B001900091019B5B681B685A1E71
:10BA7000009B1340002B0CBF01230023DBB21846B0
:10BA800002B0704729DF704700BF184628DF7047B3
:10BA900000BF184600B589B001900091019B1B685A
:10BAA0009B68002B35D002AB00221A605A609A6066
:10BAB000DA601A615A61009B0393019B9B680793AC
:10BAC000019B1B79002B02D0012B0DD01AE0012322
:10BAD0008DF80830019B1B690493019BDB6805937B
:10BAE000019B5B6906930DE002238DF80830019BF2
:10BAF000DB684FF4805202FB03F30493019B5B6904
:10BB0000069300BF019B1B689B6802AA10469847DA
:10BB100000E000BF09B05DF804FB00B587B00190FC
:10BB2000019B5A69019B9B69D31AB3F5805F28BFBB
:10BB30004FF4805305930422059BB3FBF2F3012BD2
:10BB400038BF01230593019B1A69019B9B6913442C
:10BB50000493019BDB681A46019B9B691344039382
:10BB6000059A03990498FFF78DFF0346184607B01E
:10BB70005DF804FB00B583B00190019BDA68019B7E
:10BB80001B6913441846FFF781FF0346184603B0AC
:10BB90005DF804FB08B5034B03491846FEF7E3FFC5
:10BBA00000BF08BD94610020BC61002008B5084BAF
:10BBB00008491846FEF7BEFF0346074A1360064BC6
:10BBC0001B68002B14BF01230023DBB2184608BDFD
:10BBD00094610020BC610020B861002000B583B0F2
:10BBE0002A4B1B7A002B0BD1FFF7E0FF034683F0B3
:10BBF0000103DBB2002B03D0244B00225A6042E049
:10BC0000224B02221A72224B1B681B79002B02D096
:10BC1000012B07D00DE01E4B1B681846FFF77DFF78
:10BC2000019009E01A4B1B681846FFF7A3FF01902B
:10BC300002E00323019300BF019B002B03D0019B73
:10BC4000112B0CD00FE0114B1B7C83F00103DBB2F6
:10BC5000002B17D00021022000F06EF812E00B4BF1
:10BC600001221A720FE00A4B1B6803211846FFF7E6
:10BC700011FF064B00221A72044B00225A60FFF794
:10BC800089FF00E000BF03B05DF804FBA461002061
:10BC9000B861002084B001901B4B0022DA60019B48
:10BCA0001B79002B02D0012B19D028E0019B5A6987
:10BCB000019B9B69D31AB3F5805F28BF4FF4805373
:10BCC0000393019B9A69039B1A44019B9A61019B10
:10BCD0009A69019B5B699A420ED1012310E0019B96
:10BCE0001B695A1C019B1A61019B1A69019B5B69C4
:10BCF0009A4203D1012303E000BF00E000BF00230C
:10BD0000184604B0704700BFA461002082B00190C3
:10BD1000084BDB680133074AD360064BDB68082B0E
:10BD200004D9044B0022DA60012300E00023184606
:10BD300002B07047A461002000B585B00190009169
:10BD4000019B022B02D0019B032B48D1274B1B7A6E
:10BD5000022B05D0022B35DC002B42D0012B31E029
:10BD600000238DF80F30019B022B03D0019B032B86
:10BD700009D011E01E4B1B681846FFF78BFF0346E6
:10BD80008DF80F3008E01A4B1B681846FFF7BEFF0E
:10BD900003468DF80F3000BF9DF80F30002B10D0F8
:10BDA000124B00221A72124B1A68019B022B01D10E
:10BDB000002300E00D2319461046FFF76BFEFFF746
:10BDC000E9FE00BF094B5B7C83F00103DBB2002B73
:10BDD00002D0FFF703FF05E00DF038FC02E000BFE2
:10BDE00000E000BF05B05DF804FB00BFA4610020C7
:10BDF000B861002082B0034600918DF80730064BF1
:10BE000001225A74044B1B7A002B0CBF0123002320
:10BE1000DBB2184602B07047A461002000B583B0C1
:10BE2000034600918DF807309DF80730012B03D0B1
:10BE30009DF80730032B0DD1084B00225A749DF852
:10BE40000730012B0CBF01230023DAB2034B1A7415
:10BE5000FFF7C4FE00BF03B05DF804FBA46100203F
:10BE600000B583B001900198FFF754F803461846D7
:10BE700003B05DF804FB00B58BB001900091019B0D
:10BE80001B8A043B0793009A079B1344DA1C079B09
:10BE9000B2FBF3F38DF81B300198FFF766F80590BD
:10BEA000059B002B01D1002338E0059B00221A716D
:10BEB000059B01225A71079B9AB2059BDA80059B6C
:10BEC00009939DF81B30013B0493099B019A1A606A
:10BED000002308931DE00198FFF747F80390039BA8
:10BEE000002B0ED0059B5B790133DAB2059B5A71AA
:10BEF000099B039A1A60039B019A1A60039B09939A
:10BF000004E0059800F00EF8002307E0089B0133D9
:10BF10000893089A049B9A42DDD3059B18460BB000
:10BF20005DF804FB00B58BB00190019B0793079B64
:10BF30005B798DF81B30019B08939DF81B30013B0A
:10BF400005930023099305E0089B1B680893099B50
:10BF500001330993099A059B9A42F5D3089B1B6804
:10BF60000493019B0893002309930BE0089B1B6833
:10BF7000039308990498FFF736F8039B0893099BED
:10BF8000013309939DF81B30099A9A42EED300BF02
:10BF900000BF0BB05DF804FB00B585B00190019BBC
:10BFA0000393039B043301211846FEF74BFF00BFA8
:10BFB00005B05DF804FB00B587B00190019B0593C7
:10BFC000059B043301211846FEF754FF03460393F3
:10BFD00003AB0493049B1B78002B02D10198FFF75D
:10BFE000A1FF00BF07B05DF804FB00B591B003905E
:10BFF000029101920093039B0993039B0F93099B6A
:10C00000DB881A46099B5B7902FB03F3043B089328
:10C01000099BDB880793009B1A1D079BB2FBF3F378
:10C020000E93009B0433079AB3FBF2F2079901FBCE
:10C0300002F29B1A0D93019B1A68009B1344089A05
:10C040009A4203D2089A009BD31A01E0019B1B6815
:10C050000C93019B0C9A1A6005E00F9B1B680F93D1
:10C060000E9B013B0E930E9B002BF6D100230B93EE
:10C07000079A0D9BD31A0A930A9A0C9B934228BFE6
:10C0800013460A932AE0029A0B9B134406930F9AD5
:10C090000D9B1344043305939DF84830002B05D0C5
:10C0A0000A9A059906980DF043FC04E00A9A06994D
:10C0B00005980DF03DFC00230D930F9B1B680F931B
:10C0C0000C9A0A9BD31A0C930B9A0A9B13440B935A
:10C0D000079A0C9B934228BF13460A930C9B002B94
:10C0E000D1D100BF00BF11B05DF804FB00B589B02D
:10C0F0000590049103920293039B079307AA0023E0
:10C100000093029B04990598FFF76FFF00BF09B0E9
:10C110005DF804FB00B589B0059004910392029389
:10C12000039B079307AA01230093029B0499059898
:10C13000FFF75BFF00BF09B05DF804FB82B0019020
:10C14000019B9B6800229A60019B9B6800221A61F8
:10C15000019B9B6800225A61019B9B680022DA6068
:10C16000019B9B6800225A60019B9B6800221A6019
:10C1700000BF02B0704782B001900091019B009A0D
:10C180001A60019B1B681A68019B5A60019B5A68E0
:10C19000019B1B685B689A4202D1019B00225A6096
:10C1A00000BF02B0704782B00190019B5B68002B1A
:10C1B00014D0019B5B681A46019B1B689B68134463
:10C1C0001A46019B5A60019B5A68019B1B685B6879
:10C1D0009A4204D1019B00225A6000E000BF02B0E5
:10C1E0007047000000B585B00190019800F00EF88E
:10C1F0000390039B002B01D0039B00E0024B1846E9
:10C2000005B05DF804FB00BF80A5030086B0019077
:10C21000164B0593164B04931FE0049A059BD31A03
:10C22000DB10DA0F13445B10DB00059A1344039311
:10C23000039B1B680293029A019B9A4202D9039BBB
:10C2400004930AE0029A019B9A4203D2039B0833AB
:10C25000059302E0039B5B6804E0059A049B9A4205
:10C26000DBD30023184606B0704700BF80A9030047
:10C27000A8AA0300BFF34F8F00BF064BDB6803F48F
:10C28000E0620449044B1343CB60BFF34F8F00BF00
:10C2900000BFFDE700ED00E00400FA0582B0124B9C
:10C2A0001B680193114B1B680093019B082B17D14E
:10C2B000009B032B12D801A252F823F0CDC202003A
:10C2C000D1C20200D5C20200D9C20200012308E097
:10C2D000012306E0012304E0012302E0012300E042
:10C2E0000023184602B070473001001034010010DE
:10C2F00082B0124B1B680193114B1B680093019B8A
:10C30000082B17D1009B032B12D801A252F823F05F
:10C3100021C3020025C3020029C302002DC302006D
:10C32000012308E0012306E0012304E0012302E0E9
:10C33000012300E00023184602B0704730010010CE
:10C340003401001082B0124B1B680193114B1B6823
:10C350000093019B082B17D1009B032B12D801A23D
:10C3600052F823F075C3020079C302007DC30200B6
:10C3700081C30200012308E0002306E0002304E05B
:10C38000002302E0002300E00023184602B07047BB
:10C39000300100103401001082B0124B1B68019371
:10C3A000114B1B680093019B082B17D1009B032B9B
:10C3B00012D801A252F823F0C9C30200CDC3020073
:10C3C000D1C30200D5C30200012308E0002306E028
:10C3D000002304E0002302E0002300E000231846CD
:10C3E00002B07047300100103401001082B0124BCF
:10C3F0001B680193114B1B680093019B082B17D1FD
:10C40000009B032B12D801A252F823F01DC4020096
:10C4100021C4020025C4020029C40200012308E04F
:10C42000002306E0002304E0002302E0002300E0F4
:10C430000023184602B0704730010010340100108C
:10C4400082B0124B1B680193114B1B680093019B38
:10C45000082B17D1009B032B12D801A252F823F00E
:10C4600071C4020075C4020079C402007DC40200D8
:10C47000012308E0002306E0002304E0002302E09B
:10C48000002300E00023184602B07047300100107E
:10C490003401001082B0124B1B680193114B1B68D2
:10C4A0000093019B082B17D1009B032B12D801A2EC
:10C4B00052F823F0C5C40200C9C40200CDC4020072
:10C4C000D1C40200012308E0012306E0012304E0B7
:10C4D000012302E0012300E00023184602B0704768
:10C4E0003001001034010010024B034A1A6000BFF3
:10C4F000704700BF545A00200090D00308B5FFF7E2
:10C50000CDFE0346002B0ED04FF080430022C3F82F
:10C510000C214FF080430022C3F810214FF08043DC
:10C520000022C3F83825FFF7E3FE0346002B76D040
:10C530004FF080537D4AD3F80434C2F820354FF0D1
:10C5400080537A4AD3F80834C2F824354FF0805328
:10C55000764AD3F80C34C2F828354FF08053734A2A
:10C56000D3F81034C2F82C354FF080536F4AD3F80B
:10C570001434C2F830354FF080536C4AD3F8183475
:10C58000C2F834354FF08053684AD3F81C34C2F8EF
:10C5900040354FF08053654AD3F82034C2F8443513
:10C5A0004FF08053614AD3F82434C2F848354FF035
:10C5B00080535E4AD3F82834C2F84C354FF080538C
:10C5C0005A4AD3F82C34C2F850354FF08053574AAA
:10C5D000D3F83034C2F854354FF08053534AD3F86F
:10C5E0003434C2F860354FF08053504AD3F83834B1
:10C5F000C2F864354FF080534C4AD3F83C34C2F84B
:10C6000068354FF08053494AD3F84034C2F86C354E
:10C610004FF08053454AD3F84434C2F87035FFF7E1
:10C6200091FE0346002B02D0414B424A1A60FFF7AD
:10C63000B3FE0346002B03D03F4BFB22C3F8182563
:10C64000FFF7D4FE0346002B0AD03C4B1B6823F0B7
:10C650000F023B4B1B6803F00F03384913430B6079
:10C66000FFF7EEFE0346002B03D0364B4FF400726B
:10C670001A60FFF70FFF0346002B0DD04FF08043E9
:10C68000D3F8003403F00103002B05D04FF08043B2
:10C690006FF00102C3F800242B4BD3F888302A4AEC
:10C6A00043F47003C2F88830BFF34F8F00BFBFF36D
:10C6B0006F8F00BF4FF01023D3F80032002B05DB43
:10C6C0004FF01023D3F80432002B2BDA1F4B01223A
:10C6D000C3F8042500BF1D4BD3F80034002BFAD05B
:10C6E0004FF010231222C3F8002200BF174BD3F8DB
:10C6F0000034002BFAD04FF010231222C3F804228A
:10C7000000BF124BD3F80034002BFAD00F4B00229D
:10C71000C3F8042500BF0D4BD3F80034002BFAD02A
:10C72000FFF7A8FDFFF7E0FE00BF08BD00C0004016
:10C730008C5600404881030000F00040E40E0040A9
:10C74000580200104096024000ED00E000E0014079
:10C7500000B585B0019000230393019B03F007030C
:10C76000002B04D0019B23F007030833019301F051
:10C770004BFB164B1B68002B05D1154B23F0070311
:10C780001A46124B1A60134B1A68019B134440F669
:10C79000F772934213D80F4B1A68019B1A440D4B42
:10C7A0001B689A420BD9094B1A680A4B1B68134441
:10C7B0000393084B1A68019B1344064A136001F067
:10C7C00063FB039B184605B05DF804FBC4710020B1
:10C7D000C8610020C071002082B0019000BF02B08B
:10C7E000704782B00190019B03F10802019B5A60DF
:10C7F000019B4FF0FF329A60019B03F10802019BFD
:10C80000DA60019B03F10802019B1A61019B00227F
:10C810001A6000BF02B0704782B00190019B0022F5
:10C820001A6100BF02B0704784B001900091019B73
:10C830005B680393009B039A5A60039B9A68009B72
:10C840009A60039B9B68009A5A60039B009A9A60C7
:10C85000009B019A1A61019B1B685A1C019B1A607C
:10C8600000BF04B0704784B001900091009B1B682A
:10C870000293029BB3F1FF3F03D1019B1B6903931A
:10C880000CE0019B0833039302E0039B5B68039376
:10C89000039B5B681B68029A9A42F6D2039B5A6814
:10C8A000009B5A60009B5B68009A9A60009B039A09
:10C8B0009A60039B009A5A60009B019A1A61019B3F
:10C8C0001B685A1C019B1A6000BF04B0704784B0FB
:10C8D0000190019B1B690393019B5B68019A92681D
:10C8E0009A60019B9B68019A52685A60039B5B683F
:10C8F000019A9A4203D1019B9A68039B5A60019B5B
:10C9000000221A61039B1B685A1E039B1A60039B3B
:10C910001B68184604B070470848006880F3088810
:10C9200062B661B6BFF34F8FBFF36F8F4FF4F070F5
:10C9300080F3118800DF00BF00BF0000007002001C
:10C94000074B19680868B0E8F04F80F30988BFF317
:10C950006F8F4FF0000080F31188704700BF000018
:10C96000DC710020EFF30980BFF36F8F154B1A685D
:10C970001EF0100F08BF20ED108A20E9F04F106064
:10C980004DF8043D4FF0400080F31188BFF34F8F06
:10C99000BFF36F8F01F0C8FB4FF0000080F31188E8
:10C9A00008BC19680868B0E8F04F1EF0100F08BF07
:10C9B000B0EC108A80F30988BFF36F8F704700BF17
:10C9C00000BF0000DC71002082B0034600918DF8AA
:10C9D00007309DF90730002B0ADB009BDAB20C49C7
:10C9E0009DF907305201D2B20B4483F800230BE0CB
:10C9F000009BDAB207499DF8073003F00F03043BB0
:10CA00005201D2B20B441A7600BF02B0704700BF89
:10CA100000E100E000ED00E084B00390029101929B
:10CA2000039B043B0393002343F080731A46039B4C
:10CA30001A60039B043B0393029A039B1A60039BB7
:10CA4000043B03930B4A039B1A60039B143B039321
:10CA5000019A039B1A60039B043B0393039B6FF0B3
:10CA600002021A60039B203B0393039B184604B009
:10CA7000704700BF79CA020082B040230193019B36
:10CA800083F3118800BFFEE708B50F216FF00100A6
:10CA9000FFF79AFF00F0E4F90B4B00221A6000F058
:10CAA00041F80A4B5B68094A43F040435360084B26
:10CAB0001B69074A43F010031361FFF72DFFFFF7CF
:10CAC000DBFF0023184608BDC871002030EF00E0EE
:10CAD00000ED00E082B040230193019B83F31188B5
